{
  "_format": "hh-sol-artifact-1",
  "contractName": "PulseRewards",
  "sourceName": "contracts/PulseRewards.sol",
  "abi": [
    {
      "inputs": [],
      "stateMutability": "nonpayable",
      "type": "constructor"
    },
    {
      "inputs": [
        {
          "internalType": "address",
          "name": "target",
          "type": "address"
        }
      ],
      "name": "AddressEmptyCode",
      "type": "error"
    },
    {
      "inputs": [],
      "name": "CooldownNotExpired",
      "type": "error"
    },
    {
      "inputs": [
        {
          "internalType": "address",
          "name": "implementation",
          "type": "address"
        }
      ],
      "name": "ERC1967InvalidImplementation",
      "type": "error"
    },
    {
      "inputs": [],
      "name": "ERC1967NonPayable",
      "type": "error"
    },
    {
      "inputs": [],
      "name": "EnforcedPause",
      "type": "error"
    },
    {
      "inputs": [],
      "name": "ExceedsMaxClaim",
      "type": "error"
    },
    {
      "inputs": [],
      "name": "ExpectedPause",
      "type": "error"
    },
    {
      "inputs": [],
      "name": "FailedCall",
      "type": "error"
    },
    {
      "inputs": [],
      "name": "InsufficientContractBalance",
      "type": "error"
    },
    {
      "inputs": [],
      "name": "InsufficientPoints",
      "type": "error"
    },
    {
      "inputs": [],
      "name": "InvalidAddress",
      "type": "error"
    },
    {
      "inputs": [],
      "name": "InvalidAmount",
      "type": "error"
    },
    {
      "inputs": [],
      "name": "InvalidInitialization",
      "type": "error"
    },
    {
      "inputs": [],
      "name": "NotAuthorized",
      "type": "error"
    },
    {
      "inputs": [],
      "name": "NotInitializing",
      "type": "error"
    },
    {
      "inputs": [
        {
          "internalType": "address",
          "name": "owner",
          "type": "address"
        }
      ],
      "name": "OwnableInvalidOwner",
      "type": "error"
    },
    {
      "inputs": [
        {
          "internalType": "address",
          "name": "account",
          "type": "address"
        }
      ],
      "name": "OwnableUnauthorizedAccount",
      "type": "error"
    },
    {
      "inputs": [],
      "name": "ReentrancyGuardReentrantCall",
      "type": "error"
    },
    {
      "inputs": [
        {
          "internalType": "address",
          "name": "token",
          "type": "address"
        }
      ],
      "name": "SafeERC20FailedOperation",
      "type": "error"
    },
    {
      "inputs": [],
      "name": "UUPSUnauthorizedCallContext",
      "type": "error"
    },
    {
      "inputs": [
        {
          "internalType": "bytes32",
          "name": "slot",
          "type": "bytes32"
        }
      ],
      "name": "UUPSUnsupportedProxiableUUID",
      "type": "error"
    },
    {
      "anonymous": false,
      "inputs": [
        {
          "indexed": false,
          "internalType": "uint256",
          "name": "oldCooldown",
          "type": "uint256"
        },
        {
          "indexed": false,
          "internalType": "uint256",
          "name": "newCooldown",
          "type": "uint256"
        }
      ],
      "name": "ClaimCooldownUpdated",
      "type": "event"
    },
    {
      "anonymous": false,
      "inputs": [
        {
          "indexed": false,
          "internalType": "uint256",
          "name": "oldRate",
          "type": "uint256"
        },
        {
          "indexed": false,
          "internalType": "uint256",
          "name": "newRate",
          "type": "uint256"
        }
      ],
      "name": "ConversionRateUpdated",
      "type": "event"
    },
    {
      "anonymous": false,
      "inputs": [
        {
          "indexed": true,
          "internalType": "address",
          "name": "distributor",
          "type": "address"
        },
        {
          "indexed": false,
          "internalType": "bool",
          "name": "status",
          "type": "bool"
        }
      ],
      "name": "DistributorUpdated",
      "type": "event"
    },
    {
      "anonymous": false,
      "inputs": [
        {
          "indexed": true,
          "internalType": "address",
          "name": "token",
          "type": "address"
        },
        {
          "indexed": false,
          "internalType": "uint256",
          "name": "amount",
          "type": "uint256"
        }
      ],
      "name": "EmergencyWithdraw",
      "type": "event"
    },
    {
      "anonymous": false,
      "inputs": [
        {
          "indexed": false,
          "internalType": "uint64",
          "name": "version",
          "type": "uint64"
        }
      ],
      "name": "Initialized",
      "type": "event"
    },
    {
      "anonymous": false,
      "inputs": [
        {
          "indexed": false,
          "internalType": "uint256",
          "name": "oldMax",
          "type": "uint256"
        },
        {
          "indexed": false,
          "internalType": "uint256",
          "name": "newMax",
          "type": "uint256"
        }
      ],
      "name": "MaxClaimAmountUpdated",
      "type": "event"
    },
    {
      "anonymous": false,
      "inputs": [
        {
          "indexed": false,
          "internalType": "uint256",
          "name": "oldMin",
          "type": "uint256"
        },
        {
          "indexed": false,
          "internalType": "uint256",
          "name": "newMin",
          "type": "uint256"
        }
      ],
      "name": "MinClaimPointsUpdated",
      "type": "event"
    },
    {
      "anonymous": false,
      "inputs": [
        {
          "indexed": true,
          "internalType": "address",
          "name": "previousOwner",
          "type": "address"
        },
        {
          "indexed": true,
          "internalType": "address",
          "name": "newOwner",
          "type": "address"
        }
      ],
      "name": "OwnershipTransferred",
      "type": "event"
    },
    {
      "anonymous": false,
      "inputs": [
        {
          "indexed": false,
          "internalType": "address",
          "name": "account",
          "type": "address"
        }
      ],
      "name": "Paused",
      "type": "event"
    },
    {
      "anonymous": false,
      "inputs": [
        {
          "indexed": true,
          "internalType": "address",
          "name": "user",
          "type": "address"
        },
        {
          "indexed": false,
          "internalType": "uint256",
          "name": "amount",
          "type": "uint256"
        }
      ],
      "name": "RewardAllocated",
      "type": "event"
    },
    {
      "anonymous": false,
      "inputs": [
        {
          "indexed": true,
          "internalType": "address",
          "name": "user",
          "type": "address"
        },
        {
          "indexed": false,
          "internalType": "uint256",
          "name": "points",
          "type": "uint256"
        },
        {
          "indexed": false,
          "internalType": "uint256",
          "name": "pulseAmount",
          "type": "uint256"
        }
      ],
      "name": "RewardClaimed",
      "type": "event"
    },
    {
      "anonymous": false,
      "inputs": [
        {
          "indexed": true,
          "internalType": "address",
          "name": "user",
          "type": "address"
        },
        {
          "indexed": false,
          "internalType": "uint256",
          "name": "amount",
          "type": "uint256"
        }
      ],
      "name": "RewardPushed",
      "type": "event"
    },
    {
      "anonymous": false,
      "inputs": [
        {
          "indexed": false,
          "internalType": "address",
          "name": "account",
          "type": "address"
        }
      ],
      "name": "Unpaused",
      "type": "event"
    },
    {
      "anonymous": false,
      "inputs": [
        {
          "indexed": true,
          "internalType": "address",
          "name": "implementation",
          "type": "address"
        }
      ],
      "name": "Upgraded",
      "type": "event"
    },
    {
      "inputs": [],
      "name": "UPGRADE_INTERFACE_VERSION",
      "outputs": [
        {
          "internalType": "string",
          "name": "",
          "type": "string"
        }
      ],
      "stateMutability": "view",
      "type": "function"
    },
    {
      "inputs": [
        {
          "internalType": "address",
          "name": "user",
          "type": "address"
        },
        {
          "internalType": "uint256",
          "name": "amount",
          "type": "uint256"
        }
      ],
      "name": "allocateReward",
      "outputs": [],
      "stateMutability": "nonpayable",
      "type": "function"
    },
    {
      "inputs": [
        {
          "internalType": "address[]",
          "name": "users",
          "type": "address[]"
        },
        {
          "internalType": "uint256[]",
          "name": "amounts",
          "type": "uint256[]"
        }
      ],
      "name": "batchAllocateRewards",
      "outputs": [],
      "stateMutability": "nonpayable",
      "type": "function"
    },
    {
      "inputs": [
        {
          "internalType": "address[]",
          "name": "users",
          "type": "address[]"
        },
        {
          "internalType": "uint256[]",
          "name": "amounts",
          "type": "uint256[]"
        }
      ],
      "name": "batchPushRewards",
      "outputs": [],
      "stateMutability": "nonpayable",
      "type": "function"
    },
    {
      "inputs": [
        {
          "internalType": "uint256",
          "name": "points",
          "type": "uint256"
        }
      ],
      "name": "calculatePulseAmount",
      "outputs": [
        {
          "internalType": "uint256",
          "name": "",
          "type": "uint256"
        }
      ],
      "stateMutability": "view",
      "type": "function"
    },
    {
      "inputs": [],
      "name": "claimAllocatedRewards",
      "outputs": [],
      "stateMutability": "nonpayable",
      "type": "function"
    },
    {
      "inputs": [],
      "name": "claimCooldown",
      "outputs": [
        {
          "internalType": "uint256",
          "name": "",
          "type": "uint256"
        }
      ],
      "stateMutability": "view",
      "type": "function"
    },
    {
      "inputs": [
        {
          "internalType": "uint256",
          "name": "points",
          "type": "uint256"
        },
        {
          "internalType": "bytes",
          "name": "signature",
          "type": "bytes"
        }
      ],
      "name": "claimRewards",
      "outputs": [],
      "stateMutability": "nonpayable",
      "type": "function"
    },
    {
      "inputs": [],
      "name": "conversionRate",
      "outputs": [
        {
          "internalType": "uint256",
          "name": "",
          "type": "uint256"
        }
      ],
      "stateMutability": "view",
      "type": "function"
    },
    {
      "inputs": [
        {
          "internalType": "address",
          "name": "",
          "type": "address"
        }
      ],
      "name": "distributors",
      "outputs": [
        {
          "internalType": "bool",
          "name": "",
          "type": "bool"
        }
      ],
      "stateMutability": "view",
      "type": "function"
    },
    {
      "inputs": [
        {
          "internalType": "address",
          "name": "token",
          "type": "address"
        },
        {
          "internalType": "uint256",
          "name": "amount",
          "type": "uint256"
        }
      ],
      "name": "emergencyWithdraw",
      "outputs": [],
      "stateMutability": "nonpayable",
      "type": "function"
    },
    {
      "inputs": [],
      "name": "getContractBalance",
      "outputs": [
        {
          "internalType": "uint256",
          "name": "",
          "type": "uint256"
        }
      ],
      "stateMutability": "view",
      "type": "function"
    },
    {
      "inputs": [
        {
          "internalType": "address",
          "name": "user",
          "type": "address"
        }
      ],
      "name": "getUserClaimInfo",
      "outputs": [
        {
          "internalType": "uint256",
          "name": "totalClaimed",
          "type": "uint256"
        },
        {
          "internalType": "uint256",
          "name": "lastClaimTimestamp",
          "type": "uint256"
        },
        {
          "internalType": "uint256",
          "name": "pendingRewards",
          "type": "uint256"
        },
        {
          "internalType": "bool",
          "name": "canClaim",
          "type": "bool"
        },
        {
          "internalType": "uint256",
          "name": "cooldownRemaining",
          "type": "uint256"
        }
      ],
      "stateMutability": "view",
      "type": "function"
    },
    {
      "inputs": [
        {
          "internalType": "address",
          "name": "_pulseToken",
          "type": "address"
        },
        {
          "internalType": "uint256",
          "name": "_conversionRate",
          "type": "uint256"
        },
        {
          "internalType": "address",
          "name": "_owner",
          "type": "address"
        }
      ],
      "name": "initialize",
      "outputs": [],
      "stateMutability": "nonpayable",
      "type": "function"
    },
    {
      "inputs": [],
      "name": "maxClaimAmount",
      "outputs": [
        {
          "internalType": "uint256",
          "name": "",
          "type": "uint256"
        }
      ],
      "stateMutability": "view",
      "type": "function"
    },
    {
      "inputs": [],
      "name": "minClaimPoints",
      "outputs": [
        {
          "internalType": "uint256",
          "name": "",
          "type": "uint256"
        }
      ],
      "stateMutability": "view",
      "type": "function"
    },
    {
      "inputs": [],
      "name": "owner",
      "outputs": [
        {
          "internalType": "address",
          "name": "",
          "type": "address"
        }
      ],
      "stateMutability": "view",
      "type": "function"
    },
    {
      "inputs": [],
      "name": "pause",
      "outputs": [],
      "stateMutability": "nonpayable",
      "type": "function"
    },
    {
      "inputs": [],
      "name": "paused",
      "outputs": [
        {
          "internalType": "bool",
          "name": "",
          "type": "bool"
        }
      ],
      "stateMutability": "view",
      "type": "function"
    },
    {
      "inputs": [
        {
          "internalType": "address",
          "name": "",
          "type": "address"
        }
      ],
      "name": "pendingAllocations",
      "outputs": [
        {
          "internalType": "uint256",
          "name": "",
          "type": "uint256"
        }
      ],
      "stateMutability": "view",
      "type": "function"
    },
    {
      "inputs": [],
      "name": "proxiableUUID",
      "outputs": [
        {
          "internalType": "bytes32",
          "name": "",
          "type": "bytes32"
        }
      ],
      "stateMutability": "view",
      "type": "function"
    },
    {
      "inputs": [],
      "name": "pulseToken",
      "outputs": [
        {
          "internalType": "contract IERC20",
          "name": "",
          "type": "address"
        }
      ],
      "stateMutability": "view",
      "type": "function"
    },
    {
      "inputs": [
        {
          "internalType": "address",
          "name": "user",
          "type": "address"
        },
        {
          "internalType": "uint256",
          "name": "amount",
          "type": "uint256"
        }
      ],
      "name": "pushReward",
      "outputs": [],
      "stateMutability": "nonpayable",
      "type": "function"
    },
    {
      "inputs": [],
      "name": "renounceOwnership",
      "outputs": [],
      "stateMutability": "nonpayable",
      "type": "function"
    },
    {
      "inputs": [
        {
          "internalType": "uint256",
          "name": "newCooldown",
          "type": "uint256"
        }
      ],
      "name": "setClaimCooldown",
      "outputs": [],
      "stateMutability": "nonpayable",
      "type": "function"
    },
    {
      "inputs": [
        {
          "internalType": "uint256",
          "name": "newRate",
          "type": "uint256"
        }
      ],
      "name": "setConversionRate",
      "outputs": [],
      "stateMutability": "nonpayable",
      "type": "function"
    },
    {
      "inputs": [
        {
          "internalType": "address",
          "name": "distributor",
          "type": "address"
        },
        {
          "internalType": "bool",
          "name": "status",
          "type": "bool"
        }
      ],
      "name": "setDistributor",
      "outputs": [],
      "stateMutability": "nonpayable",
      "type": "function"
    },
    {
      "inputs": [
        {
          "internalType": "uint256",
          "name": "newMax",
          "type": "uint256"
        }
      ],
      "name": "setMaxClaimAmount",
      "outputs": [],
      "stateMutability": "nonpayable",
      "type": "function"
    },
    {
      "inputs": [
        {
          "internalType": "uint256",
          "name": "newMin",
          "type": "uint256"
        }
      ],
      "name": "setMinClaimPoints",
      "outputs": [],
      "stateMutability": "nonpayable",
      "type": "function"
    },
    {
      "inputs": [],
      "name": "totalDistributed",
      "outputs": [
        {
          "internalType": "uint256",
          "name": "",
          "type": "uint256"
        }
      ],
      "stateMutability": "view",
      "type": "function"
    },
    {
      "inputs": [
        {
          "internalType": "address",
          "name": "newOwner",
          "type": "address"
        }
      ],
      "name": "transferOwnership",
      "outputs": [],
      "stateMutability": "nonpayable",
      "type": "function"
    },
    {
      "inputs": [],
      "name": "unpause",
      "outputs": [],
      "stateMutability": "nonpayable",
      "type": "function"
    },
    {
      "inputs": [
        {
          "internalType": "address",
          "name": "newImplementation",
          "type": "address"
        },
        {
          "internalType": "bytes",
          "name": "data",
          "type": "bytes"
        }
      ],
      "name": "upgradeToAndCall",
      "outputs": [],
      "stateMutability": "payable",
      "type": "function"
    },
    {
      "inputs": [
        {
          "internalType": "address",
          "name": "",
          "type": "address"
        }
      ],
      "name": "userClaims",
      "outputs": [
        {
          "internalType": "uint256",
          "name": "totalClaimed",
          "type": "uint256"
        },
        {
          "internalType": "uint256",
          "name": "lastClaimTimestamp",
          "type": "uint256"
        },
        {
          "internalType": "uint256",
          "name": "pendingRewards",
          "type": "uint256"
        }
      ],
      "stateMutability": "view",
      "type": "function"
    },
    {
      "inputs": [],
      "name": "version",
      "outputs": [
        {
          "internalType": "string",
          "name": "",
          "type": "string"
        }
      ],
      "stateMutability": "pure",
      "type": "function"
    }
  ],
  "bytecode": "0x60a080604052346100cc57306080527ff0c57e16840df040f15088dc2f81fe391c3923bec73e23a9662efc9c229c6a009081549060ff8260401c166100bd57506001600160401b036002600160401b031982821601610078575b604051611d4290816100d2823960805181818161119b015261127a0152f35b6001600160401b031990911681179091556040519081527fc7f505b2f371ae2175ee4913f4499e1f2633a7b5936321eed1cdaeb6115181d290602090a1388080610059565b63f92ee8a960e01b8152600490fd5b600080fdfe6040608081526004908136101561001557600080fd5b600091823560e01c80630e97bac31461170357806318417c591461156b578063395c0071146115335780633f4ba83a146114bc5780634bc81a4e146114695780634f1ef286146111ff57806352d1902d14611186578063549dd8c314610f8c57806354fd4d5014610f4f57806359c9eb9014610eff5780635b0fc6e814610ed75780635c975abb14610ea65780636f9fb98a14610e0f578063715018a614610da557806373881e4c14610d4c5780637b352f8e14610cf05780637ffdf53e14610cd1578063829aae8f14610bf15780638456cb5914610b895780638c502b9f14610a1a5780638da5cb5b146109e457806395ccea67146108fe578063ad3cb1cc146108bd578063aeef64391461089e578063c350a1b5146106a0578063cc64278414610662578063cd398fd814610643578063d2e80494146105d9578063d59ba0df14610541578063e70f55a314610302578063ee75defd14610263578063efca2eed14610244578063f0a3563c146101f2578063f2fde38b146101c25763fdea3657146101a257600080fd5b346101be57826003193601126101be5760209250549051908152f35b8280fd5b83346101ef5760203660031901126101ef576101ec6101df61184d565b6101e7611bcf565b611a5e565b80f35b80fd5b5050346102405760203660031901126102405760609181906001600160a01b0361021a61184d565b168152600660205220805491600260018301549201549181519384526020840152820152f35b5080fd5b5050346102405781600319360112610240576020906008549051908152f35b5091346101ef5760203660031901126101ef576001600160a01b0361028661184d565b16815260066020528181209081549260026001840154930154906102ab86548561199d565b928342101593846000146102d9575060a09650935b8151958652602086015284015260608301526080820152f35b904282039182116102ef575060a09650936102c0565b634e487b7160e01b815260118852602490fd5b50346101be5761031136611952565b949291933387526020916005835260ff8589205416158061051f575b61051057610339611ad2565b6103448787146119e0565b8796885b8181106104f05750885486516370a0823160e01b815230818601526001600160a01b03949186908290602490829089165afa9081156104e657908a918c916104b1575b50106104a35750885b8781106103c057896103a88a60085461199d565b6008556001600080516020611ced8339815191525580f35b80846103d76103d26001948c8b611a24565b611a4a565b1615158061048f575b6103eb575b01610394565b6103f6818486611a24565b35856104066103d2848d8c611a24565b168c526006875261041b898d2091825461199d565b9055610444858c54166104326103d2848d8c611a24565b61043d848789611a24565b3591611b2d565b6104526103d2828b8a611a24565b7f02d61c8d35b1bb2fe14bfbbf4d1c1249b3f10a1db3db982c92b53fc427455133878761048085888a611a24565b35938c519485521692a26103e5565b5061049b818486611a24565b3515156103e0565b865163786e0a9960e01b8152fd5b809250878092503d83116104df575b6104ca818361189a565b810103126104db578990513861038b565b8a80fd5b503d6104c0565b88513d8d823e3d90fd5b976105096001916105028b8587611a24565b359061199d565b9801610348565b50835163ea8e4eb560e01b8152fd5b50600080516020611cad833981519152546001600160a01b031633141561032d565b5090346101be57806003193601126101be5761055b61184d565b90602435918215158093036105d557610572611bcf565b6001600160a01b03169283156105c757507f19e1fee2e38695e60ad3ef8c81759c22d6d7ee56f9b8805363820a50da468a18916020918486526005835280862060ff1981541660ff841617905551908152a280f35b905163e6c4247b60e01b8152fd5b8480fd5b5090346101be5760203660031901126101be578135916105f7611bcf565b821561063557507fa951dd7112ba7b7fbc01435d34365ae90f77c21ae3715041c3d0ccb9f6ed0daa906001548151908152836020820152a160015580f35b905163162908e360e11b8152fd5b5050346102405781600319360112610240576020906002549051908152f35b5050346102405760203660031901126102405760209160ff9082906001600160a01b0361068d61184d565b1681526005855220541690519015158152f35b50346101be5760603660031901126101be576106ba61184d565b604435916001600160a01b0391908284169060243582860361089a577ff0c57e16840df040f15088dc2f81fe391c3923bec73e23a9662efc9c229c6a009586549560ff878a1c16159567ffffffffffffffff881697881580610893575b6001809a149081610889575b159081610880575b506108705767ffffffffffffffff19811689178a5587610851575b50169081158015610849575b61083957821561082957906107776201518094939261076f611c08565b6101e7611c08565b61077f611c08565b610787611c08565b61078f611c08565b86600080516020611ced833981519152556107a8611c08565b89546001600160a01b03191617895585556064600255683635c9adc5dea000006003555585526005602052838520805460ff1916831790556107e8578380f35b7fc7f505b2f371ae2175ee4913f4499e1f2633a7b5936321eed1cdaeb6115181d29260209268ff000000000000000019815416905551908152a13880808380f35b885163162908e360e11b81528490fd5b885163e6c4247b60e01b81528490fd5b508415610752565b68ffffffffffffffffff19166801000000000000000117895538610746565b8a5163f92ee8a960e01b81528690fd5b9050153861072b565b303b159150610723565b5087610717565b8780fd5b5050346102405781600319360112610240576020906003549051908152f35b50503461024057816003193601126102405780516108fa916108de82611868565b60058252640352e302e360dc1b602083015251918291826118d8565b0390f35b50503461024057806003193601126102405761091861184d565b9060243590610925611bcf565b6001600160a01b039283169284908461099c578180858193600080516020611cad8339815191525416828215610993575bf11561098a577f5fafa99d0643513820be26656b45130b01e1c03062e1266bf36f88cbd3bd9695916020915b51908152a280f35b513d84823e3d90fd5b506108fc610956565b839150916109df7f5fafa99d0643513820be26656b45130b01e1c03062e1266bf36f88cbd3bd969594602094600080516020611cad833981519152541687611b2d565b610982565b505034610240578160031936011261024057600080516020611cad8339815191525490516001600160a01b039091168152602090f35b5090346101be57610a2a36611952565b949190338752602092600560205260ff86892054161580610b67575b610b595750610a568683146119e0565b865b828110610a63578780f35b6001906001600160a01b0380610a7d6103d284888b611a24565b16151580610b45575b610a92575b5001610a58565b610a9d828a86611a24565b3581610aad6103d285898c611a24565b168b5260078752610ac2898c2091825461199d565b9055610acf828a86611a24565b3581610adf6103d285898c611a24565b168b5260068752610af760028a8d200191825461199d565b90557f098780f78fba60e0edc6f2e1ff456143f9803c5bf9f2cb202bd715d69b2e4e9186610b296103d285898c611a24565b92610b35858d89611a24565b35938b519485521692a238610a8b565b50610b51828a86611a24565b351515610a86565b855163ea8e4eb560e01b8152fd5b50600080516020611cad833981519152546001600160a01b0316331415610a46565b50503461024057816003193601126102405760207f62e78cea01bee320cd4e420270b5ea74000d11b0c9f74754ebdbfc544b05a25891610bc7611bcf565b610bcf611b02565b600080516020611ccd833981519152805460ff1916600117905551338152a180f35b5090346101be57806003193601126101be57610c0b61184d565b9060243591338552600560205260ff82862054161580610caf575b610c9f576001600160a01b03169283156105c757821561063557507f098780f78fba60e0edc6f2e1ff456143f9803c5bf9f2cb202bd715d69b2e4e919160209184865260078352808620610c7b83825461199d565b905584865260068352600281872001610c9583825461199d565b905551908152a280f35b815163ea8e4eb560e01b81528490fd5b50600080516020611cad833981519152546001600160a01b0316331415610c26565b5050346102405781600319360112610240576020906001549051908152f35b5090346101be5760203660031901126101be57813591610d0e611bcf565b821561063557507fcef3db5f600c4a04b360952c74886b3db510c37b744fb9a4d4d7fb8dcce52e0a906003548151908152836020820152a160035580f35b5091346101ef5760203660031901126101ef57670de0b6b3a7640000833581810294918115918604141715610d9257602083610d8b86600154906119c0565b9051908152f35b634e487b7160e01b825260119052602490fd5b83346101ef57806003193601126101ef57610dbe611bcf565b600080516020611cad83398151915280546001600160a01b0319811690915581906001600160a01b03167f8be0079c531659141344cd1fd0a4f28419497f9722a3daafe3b4186f6b6457e08280a380f35b5090346101be57826003193601126101be57825481516370a0823160e01b81523093810193909352602090839060249082906001600160a01b03165afa918215610e9c578392610e64575b6020838351908152f35b9091506020813d602011610e94575b81610e806020938361189a565b810103126101be5760209250519038610e5a565b3d9150610e73565b81513d85823e3d90fd5b50503461024057816003193601126102405760209060ff600080516020611ccd833981519152541690519015158152f35b505034610240578160031936011261024057905490516001600160a01b039091168152602090f35b50346101be5760203660031901126101be577f78cc7d427330795fc1cd2c34df4c3e227b215808406932377e468dcfa7b2d157813592610f3d611bcf565b82548151908152846020820152a15580f35b50503461024057816003193601126102405780516108fa91610f7082611868565b60058252640312e302e360dc1b602083015251918291826118d8565b5091903461024057806003193601126102405782359060243567ffffffffffffffff8082116105d557366023830112156105d557818601359081116105d557369101602401116101be57610fde611ad2565b610fe6611b02565b600254821061117757338352602060068152818420906001820161100d815488549061199d565b421061116757670de0b6b3a764000080860290868204148615171561115457600154611038916119c0565b92600354841161114457865485516370a0823160e01b815230818b01526001600160a01b0399918590829060249082908e165afa90811561113a579086918a91611105575b50106110f757507ff01da32686223933d8a18a391060918c7f11a3648639edd87ae013e2e27317439596976110d792826110b98780955461199d565b90554290556110ca8260085461199d565b6008553390895416611b2d565b82519485528401523392a26001600080516020611ced8339815191525580f35b855163786e0a9960e01b8152fd5b809250868092503d8311611133575b61111e818361189a565b8101031261112f578590513861107d565b8880fd5b503d611114565b87513d8b823e3d90fd5b8451632250db8b60e11b81528890fd5b634e487b7160e01b875260118852602487fd5b8351633ce33ddb60e01b81528790fd5b5163303e7a0760e01b81528390fd5b5091346101ef57806003193601126101ef57507f00000000000000000000000000000000000000000000000000000000000000006001600160a01b031630036111f257602090517f360894a13ba1a3210667c828492db98dca3e2076cc3735a920a3ca505d382bbc8152f35b5163703e46dd60e11b8152fd5b5090806003193601126101be5761121461184d565b90602493843567ffffffffffffffff811161024057366023820112156102405780850135611241816118bc565b9461124e8551968761189a565b81865260209182870193368a8383010111611465578186928b8693018737880101526001600160a01b037f00000000000000000000000000000000000000000000000000000000000000008116308114908115611437575b50611427576112b3611bcf565b81169585516352d1902d60e01b815283818a818b5afa8691816113f4575b506112ed575050505050505191634c9c8ce360e01b8352820152fd5b9088888894938c7f360894a13ba1a3210667c828492db98dca3e2076cc3735a920a3ca505d382bbc918281036113df5750853b156113cb575080546001600160a01b031916821790558451889392917fbc7cd75a20ee27fd9adebab32041f755214dbc6bffa90cc0225b39da2e5c2d3b8580a28251156113ad57505061139f9582915190845af4913d156113a3573d611391611388826118bc565b9251928361189a565b81528581943d92013e611c49565b5080f35b5060609250611c49565b9550955050505050346113bf57505080f35b63b398979f60e01b8152fd5b8651634c9c8ce360e01b8152808501849052fd5b8751632a87526960e21b815280860191909152fd5b9091508481813d8311611420575b61140c818361189a565b8101031261141c575190386112d1565b8680fd5b503d611402565b855163703e46dd60e11b81528890fd5b9050817f360894a13ba1a3210667c828492db98dca3e2076cc3735a920a3ca505d382bbc54161415386112a6565b8580fd5b50346101be5760203660031901126101be577fa73947502c6e3dc6c5157a6304d37a123b26885abd755c02131457588934d8169035916114a7611bcf565b6002548151908152836020820152a160025580f35b50346101be57826003193601126101be576114d5611bcf565b600080516020611ccd8339815191529081549060ff821615611525575060ff19169055513381527f5db9ee0a495bf2e6ff9c91a7834c1ba4fdd244a5e8aa4e537bd38aeae4b073aa90602090a180f35b8351638dfc202b60e01b8152fd5b5050346102405760203660031901126102405760209181906001600160a01b0361155b61184d565b1681526007845220549051908152f35b5082903461024057826003193601126102405761158661184d565b926024353384526020916005835260ff818620541615806116e1575b6116d2576115ae611ad2565b6001600160a01b038681169485156116c45783156116b657602485838954168551928380926370a0823160e01b825230878301525afa9081156116ac57908591899161167b575b501061166d575082869761165392877f02d61c8d35b1bb2fe14bfbbf4d1c1249b3f10a1db3db982c92b53fc42745513398995260068752848a2061163a84825461199d565b90556116488360085461199d565b600855895416611b2d565b51908152a26001600080516020611ced8339815191525580f35b825163786e0a9960e01b8152fd5b809250878092503d83116116a5575b611694818361189a565b8101031261089a578490518a6115f5565b503d61168a565b84513d8a823e3d90fd5b825163162908e360e11b8152fd5b825163e6c4247b60e01b8152fd5b5163ea8e4eb560e01b81528390fd5b50600080516020611cad833981519152546001600160a01b03163314156115a2565b5090346101be57826003193601126101be5761171d611ad2565b611725611b02565b33835260209160078352818420549081156116b657845483516370a0823160e01b815230818401526001600160a01b03929186908290602490829087165afa908115611843579084918891611812575b50106118045750906117e3817ff01da32686223933d8a18a391060918c7f11a3648639edd87ae013e2e27317439493338852600787528785812055600687528488208860028201556117c883825461199d565b90556117d68260085461199d565b6008553390885416611b2d565b8151938585528401523392a26001600080516020611ced8339815191525580f35b835163786e0a9960e01b8152fd5b809250878092503d831161183c575b61182b818361189a565b8101031261141c5783905138611775565b503d611821565b85513d89823e3d90fd5b600435906001600160a01b038216820361186357565b600080fd5b6040810190811067ffffffffffffffff82111761188457604052565b634e487b7160e01b600052604160045260246000fd5b90601f8019910116810190811067ffffffffffffffff82111761188457604052565b67ffffffffffffffff811161188457601f01601f191660200190565b6020808252825181830181905290939260005b82811061190d57505060409293506000838284010152601f8019910116010190565b8181018601518482016040015285016118eb565b9181601f840112156118635782359167ffffffffffffffff8311611863576020808501948460051b01011161186357565b60406003198201126118635767ffffffffffffffff91600435838111611863578261197f91600401611921565b939093926024359182116118635761199991600401611921565b9091565b919082018092116119aa57565b634e487b7160e01b600052601160045260246000fd5b81156119ca570490565b634e487b7160e01b600052601260045260246000fd5b156119e757565b60405162461bcd60e51b8152602060048201526015602482015274082e4e4c2f240d8cadccee8d040dad2e6dac2e8c6d605b1b6044820152606490fd5b9190811015611a345760051b0190565b634e487b7160e01b600052603260045260246000fd5b356001600160a01b03811681036118635790565b6001600160a01b03908116908115611ab957600080516020611cad83398151915280546001600160a01b031981168417909155167f8be0079c531659141344cd1fd0a4f28419497f9722a3daafe3b4186f6b6457e0600080a3565b604051631e4fbdf760e01b815260006004820152602490fd5b600080516020611ced8339815191526002815414611af05760029055565b604051633ee5aeb560e01b8152600490fd5b60ff600080516020611ccd8339815191525416611b1b57565b60405163d93c066560e01b8152600490fd5b60405163a9059cbb60e01b602082019081526001600160a01b0393841660248301526044808301959095529381529092608082019067ffffffffffffffff82118383101761188457602092600092604052519082865af115611bc3576000513d611bba57508082163b155b611ba0575050565b604051635274afe760e01b81529116600482015260249150fd5b60011415611b98565b6040513d6000823e3d90fd5b600080516020611cad833981519152546001600160a01b03163303611bf057565b60405163118cdaa760e01b8152336004820152602490fd5b60ff7ff0c57e16840df040f15088dc2f81fe391c3923bec73e23a9662efc9c229c6a005460401c1615611c3757565b604051631afcd79f60e31b8152600490fd5b90611c705750805115611c5e57602081519101fd5b60405163d6bda27560e01b8152600490fd5b81511580611ca3575b611c81575090565b604051639996b31560e01b81526001600160a01b039091166004820152602490fd5b50803b15611c7956fe9016d09d72d40fdae2fd8ceac6b6234c7706214fd39c1cd1e609a0528c199300cd5ed15c6e187e77e9aee88184c21f4f2182ab5827cb3b7e07fbedcd63f033009b779b17422d0df92223018b32b4d1fa46e071723d6817e2486d003becc55f00a26469706673582212206c01f6837ace4f1609c803c337b7948e089fc7b6a335d318435cc50efe5fc73764736f6c63430008160033",
  "linkReferences": {},
  "deployedLinkReferences": {}
}